{
  "_format": "hh-sol-artifact-1",
  "contractName": "TodoLists",
  "sourceName": "contracts/todo.sol",
  "abi": [
    {
      "inputs": [],
      "stateMutability": "nonpayable",
      "type": "constructor"
    },
    {
      "anonymous": false,
      "inputs": [
        {
          "indexed": true,
          "internalType": "address",
          "name": "previousOwner",
          "type": "address"
        },
        {
          "indexed": true,
          "internalType": "address",
          "name": "newOwner",
          "type": "address"
        }
      ],
      "name": "OwnershipTransferred",
      "type": "event"
    },
    {
      "stateMutability": "payable",
      "type": "fallback"
    },
    {
      "inputs": [
        {
          "internalType": "string",
          "name": "todoId",
          "type": "string"
        },
        {
          "internalType": "string",
          "name": "listid",
          "type": "string"
        }
      ],
      "name": "Completed",
      "outputs": [],
      "stateMutability": "nonpayable",
      "type": "function"
    },
    {
      "inputs": [
        {
          "internalType": "string",
          "name": "_id",
          "type": "string"
        }
      ],
      "name": "addList",
      "outputs": [],
      "stateMutability": "nonpayable",
      "type": "function"
    },
    {
      "inputs": [
        {
          "internalType": "string",
          "name": "listid",
          "type": "string"
        },
        {
          "internalType": "string",
          "name": "title",
          "type": "string"
        },
        {
          "internalType": "string",
          "name": "description",
          "type": "string"
        }
      ],
      "name": "addTodo",
      "outputs": [],
      "stateMutability": "nonpayable",
      "type": "function"
    },
    {
      "inputs": [
        {
          "internalType": "address",
          "name": "",
          "type": "address"
        },
        {
          "internalType": "uint256",
          "name": "",
          "type": "uint256"
        }
      ],
      "name": "address2ListIds",
      "outputs": [
        {
          "internalType": "string",
          "name": "",
          "type": "string"
        }
      ],
      "stateMutability": "view",
      "type": "function"
    },
    {
      "inputs": [
        {
          "internalType": "string",
          "name": "todoId",
          "type": "string"
        },
        {
          "internalType": "string",
          "name": "listid",
          "type": "string"
        }
      ],
      "name": "deleteTodo",
      "outputs": [],
      "stateMutability": "nonpayable",
      "type": "function"
    },
    {
      "inputs": [
        {
          "internalType": "address",
          "name": "user",
          "type": "address"
        }
      ],
      "name": "getTodos",
      "outputs": [
        {
          "components": [
            {
              "internalType": "string",
              "name": "id",
              "type": "string"
            },
            {
              "components": [
                {
                  "internalType": "string",
                  "name": "id",
                  "type": "string"
                },
                {
                  "internalType": "string",
                  "name": "title",
                  "type": "string"
                },
                {
                  "internalType": "string",
                  "name": "description",
                  "type": "string"
                },
                {
                  "internalType": "bool",
                  "name": "isDone",
                  "type": "bool"
                }
              ],
              "internalType": "struct TodoLists.TodoItem[]",
              "name": "todos",
              "type": "tuple[]"
            }
          ],
          "internalType": "struct TodoLists.TodoList[]",
          "name": "",
          "type": "tuple[]"
        }
      ],
      "stateMutability": "view",
      "type": "function"
    },
    {
      "inputs": [],
      "name": "getUserIds",
      "outputs": [
        {
          "internalType": "string[]",
          "name": "",
          "type": "string[]"
        }
      ],
      "stateMutability": "view",
      "type": "function"
    },
    {
      "inputs": [
        {
          "internalType": "string",
          "name": "",
          "type": "string"
        },
        {
          "internalType": "uint256",
          "name": "",
          "type": "uint256"
        }
      ],
      "name": "id2TodoItems",
      "outputs": [
        {
          "internalType": "string",
          "name": "id",
          "type": "string"
        },
        {
          "internalType": "string",
          "name": "title",
          "type": "string"
        },
        {
          "internalType": "string",
          "name": "description",
          "type": "string"
        },
        {
          "internalType": "bool",
          "name": "isDone",
          "type": "bool"
        }
      ],
      "stateMutability": "view",
      "type": "function"
    },
    {
      "inputs": [
        {
          "internalType": "uint256",
          "name": "",
          "type": "uint256"
        }
      ],
      "name": "listIds",
      "outputs": [
        {
          "internalType": "string",
          "name": "",
          "type": "string"
        }
      ],
      "stateMutability": "view",
      "type": "function"
    },
    {
      "inputs": [
        {
          "internalType": "string",
          "name": "",
          "type": "string"
        }
      ],
      "name": "listIds2exists",
      "outputs": [
        {
          "internalType": "bool",
          "name": "",
          "type": "bool"
        }
      ],
      "stateMutability": "view",
      "type": "function"
    },
    {
      "inputs": [],
      "name": "owner",
      "outputs": [
        {
          "internalType": "address",
          "name": "",
          "type": "address"
        }
      ],
      "stateMutability": "view",
      "type": "function"
    },
    {
      "inputs": [
        {
          "internalType": "string",
          "name": "_id",
          "type": "string"
        }
      ],
      "name": "removeList",
      "outputs": [],
      "stateMutability": "nonpayable",
      "type": "function"
    },
    {
      "inputs": [],
      "name": "renounceOwnership",
      "outputs": [],
      "stateMutability": "nonpayable",
      "type": "function"
    },
    {
      "inputs": [],
      "name": "todoCnt",
      "outputs": [
        {
          "internalType": "uint256",
          "name": "",
          "type": "uint256"
        }
      ],
      "stateMutability": "view",
      "type": "function"
    },
    {
      "inputs": [
        {
          "internalType": "address",
          "name": "newOwner",
          "type": "address"
        }
      ],
      "name": "transferOwnership",
      "outputs": [],
      "stateMutability": "nonpayable",
      "type": "function"
    },
    {
      "inputs": [
        {
          "internalType": "string",
          "name": "todoId",
          "type": "string"
        },
        {
          "internalType": "string",
          "name": "listid",
          "type": "string"
        },
        {
          "internalType": "string",
          "name": "title",
          "type": "string"
        },
        {
          "internalType": "string",
          "name": "description",
          "type": "string"
        }
      ],
      "name": "updateTodo",
      "outputs": [],
      "stateMutability": "nonpayable",
      "type": "function"
    },
    {
      "inputs": [
        {
          "internalType": "address",
          "name": "",
          "type": "address"
        }
      ],
      "name": "user2used",
      "outputs": [
        {
          "internalType": "bool",
          "name": "",
          "type": "bool"
        }
      ],
      "stateMutability": "view",
      "type": "function"
    },
    {
      "inputs": [
        {
          "internalType": "uint256",
          "name": "",
          "type": "uint256"
        }
      ],
      "name": "users",
      "outputs": [
        {
          "internalType": "address",
          "name": "",
          "type": "address"
        }
      ],
      "stateMutability": "view",
      "type": "function"
    },
    {
      "stateMutability": "payable",
      "type": "receive"
    }
  ],
  "bytecode": "0x608060405260006004553480156200001657600080fd5b50620000376200002b6200003d60201b60201c565b6200004560201b60201c565b62000109565b600033905090565b60008060009054906101000a900473ffffffffffffffffffffffffffffffffffffffff169050816000806101000a81548173ffffffffffffffffffffffffffffffffffffffff021916908373ffffffffffffffffffffffffffffffffffffffff1602179055508173ffffffffffffffffffffffffffffffffffffffff168173ffffffffffffffffffffffffffffffffffffffff167f8be0079c531659141344cd1fd0a4f28419497f9722a3daafe3b4186f6b6457e060405160405180910390a35050565b61366980620001196000396000f3fe60806040526004361061010d5760003560e01c8063863ad50111610095578063bc13aad411610064578063bc13aad4146103ac578063da41e67a146103d5578063e01da11e146103fe578063e9c36b0614610429578063f2fde38b1461045257610114565b8063863ad501146102de5780638da5cb5b1461031b578063a6ecdc6314610346578063b9cdbde91461036f57610114565b8063529900d5116100dc578063529900d5146101e45780635c10955d146102215780636a73d9d11461024a578063715018a61461028757806380eda6ad1461029e57610114565b806302209d96146101165780631b3b7e861461013f57806324c91ac91461016a578063365b98b2146101a757610114565b3661011457005b005b34801561012257600080fd5b5061013d60048036038101906101389190612266565b61047b565b005b34801561014b57600080fd5b50610154610741565b60405161016191906122c8565b60405180910390f35b34801561017657600080fd5b50610191600480360381019061018c919061230f565b610747565b60405161019e91906123bb565b60405180910390f35b3480156101b357600080fd5b506101ce60048036038101906101c9919061230f565b6107f3565b6040516101db919061241e565b60405180910390f35b3480156101f057600080fd5b5061020b60048036038101906102069190612465565b610832565b60405161021891906124ad565b60405180910390f35b34801561022d57600080fd5b50610248600480360381019061024391906124c8565b610852565b005b34801561025657600080fd5b50610271600480360381019061026c919061256f565b6109e7565b60405161027e91906123bb565b60405180910390f35b34801561029357600080fd5b5061029c610aa0565b005b3480156102aa57600080fd5b506102c560048036038101906102c091906125af565b610ab4565b6040516102d5949392919061260b565b60405180910390f35b3480156102ea57600080fd5b5061030560048036038101906103009190612266565b610cbc565b60405161031291906124ad565b60405180910390f35b34801561032757600080fd5b50610330610cf2565b60405161033d919061241e565b60405180910390f35b34801561035257600080fd5b5061036d60048036038101906103689190612665565b610d1b565b005b34801561037b57600080fd5b5061039660048036038101906103919190612465565b610edb565b6040516103a391906129ce565b60405180910390f35b3480156103b857600080fd5b506103d360048036038101906103ce91906129f0565b6112e7565b005b3480156103e157600080fd5b506103fc60048036038101906103f79190612266565b61147e565b005b34801561040a57600080fd5b5061041361195a565b6040516104209190612b2a565b60405180910390f35b34801561043557600080fd5b50610450600480360381019061044b91906129f0565b611a70565b005b34801561045e57600080fd5b5061047960048036038101906104749190612465565b611d40565b005b60003382604051602001610490929190612bd0565b6040516020818303038152906040529050600115156002826040516104b59190612bf8565b908152602001604051809103902060009054906101000a900460ff16151503610513576040517f08c379a000000000000000000000000000000000000000000000000000000000815260040161050a90612c5b565b60405180910390fd5b600160003373ffffffffffffffffffffffffffffffffffffffff1673ffffffffffffffffffffffffffffffffffffffff168152602001908152602001600020829080600181540180825580915050600190039060005260206000200160009091909190915090816105849190612e87565b5060001515600360003373ffffffffffffffffffffffffffffffffffffffff1673ffffffffffffffffffffffffffffffffffffffff16815260200190815260200160002060009054906101000a900460ff16151503610699576001600360003373ffffffffffffffffffffffffffffffffffffffff1673ffffffffffffffffffffffffffffffffffffffff16815260200190815260200160002060006101000a81548160ff0219169083151502179055506006339080600181540180825580915050600190039060005260206000200160009091909190916101000a81548173ffffffffffffffffffffffffffffffffffffffff021916908373ffffffffffffffffffffffffffffffffffffffff1602179055505b600015156002826040516106ad9190612bf8565b908152602001604051809103902060009054906101000a900460ff1615150361073d5760016002826040516106e29190612bf8565b908152602001604051809103902060006101000a81548160ff02191690831515021790555060058290806001815401808255809150506001900390600052602060002001600090919091909150908161073b9190612e87565b505b5050565b60045481565b6005818154811061075757600080fd5b90600052602060002001600091509050805461077290612caa565b80601f016020809104026020016040519081016040528092919081815260200182805461079e90612caa565b80156107eb5780601f106107c0576101008083540402835291602001916107eb565b820191906000526020600020905b8154815290600101906020018083116107ce57829003601f168201915b505050505081565b6006818154811061080357600080fd5b906000526020600020016000915054906101000a900473ffffffffffffffffffffffffffffffffffffffff1681565b60036020528060005260406000206000915054906101000a900460ff1681565b60003384604051602001610867929190612bd0565b60405160208183030381529060405290506000151560028260405161088c9190612bf8565b908152602001604051809103902060009054906101000a900460ff161515036108ea576040517f08c379a00000000000000000000000000000000000000000000000000000000081526004016108e190612fa5565b60405180910390fd5b60006040518060800160405280610902600454611dc3565b81526020018581526020018481526020016000151581525090506004600081548092919061092f90612ff4565b91905055506007856040516109449190612bf8565b908152602001604051809103902081908060018154018082558091505060019003906000526020600020906004020160009091909190915060008201518160000190816109919190612e87565b5060208201518160010190816109a79190612e87565b5060408201518160020190816109bd9190612e87565b5060608201518160030160006101000a81548160ff02191690831515021790555050505050505050565b60016020528160005260406000208181548110610a0357600080fd5b90600052602060002001600091509150508054610a1f90612caa565b80601f0160208091040260200160405190810160405280929190818152602001828054610a4b90612caa565b8015610a985780601f10610a6d57610100808354040283529160200191610a98565b820191906000526020600020905b815481529060010190602001808311610a7b57829003601f168201915b505050505081565b610aa8611f4b565b610ab26000611fc9565b565b6007828051602081018201805184825260208301602085012081835280955050505050508181548110610ae657600080fd5b906000526020600020906004020160009150915050806000018054610b0a90612caa565b80601f0160208091040260200160405190810160405280929190818152602001828054610b3690612caa565b8015610b835780601f10610b5857610100808354040283529160200191610b83565b820191906000526020600020905b815481529060010190602001808311610b6657829003601f168201915b505050505090806001018054610b9890612caa565b80601f0160208091040260200160405190810160405280929190818152602001828054610bc490612caa565b8015610c115780601f10610be657610100808354040283529160200191610c11565b820191906000526020600020905b815481529060010190602001808311610bf457829003601f168201915b505050505090806002018054610c2690612caa565b80601f0160208091040260200160405190810160405280929190818152602001828054610c5290612caa565b8015610c9f5780601f10610c7457610100808354040283529160200191610c9f565b820191906000526020600020905b815481529060010190602001808311610c8257829003601f168201915b5050505050908060030160009054906101000a900460ff16905084565b6002818051602081018201805184825260208301602085012081835280955050505050506000915054906101000a900460ff1681565b60008060009054906101000a900473ffffffffffffffffffffffffffffffffffffffff16905090565b60003384604051602001610d30929190612bd0565b604051602081830303815290604052905060001515600282604051610d559190612bf8565b908152602001604051809103902060009054906101000a900460ff16151503610db3576040517f08c379a0000000000000000000000000000000000000000000000000000000008152600401610daa90612fa5565b60405180910390fd5b6000600785604051610dc59190612bf8565b9081526020016040518091039020905060005b8180549050811015610ed25786604051602001610df59190612bf8565b60405160208183030381529060405280519060200120828281548110610e1e57610e1d61303c565b5b9060005260206000209060040201600001604051602001610e3f91906130ee565b6040516020818303038152906040528051906020012003610ebf5784828281548110610e6e57610e6d61303c565b5b90600052602060002090600402016001019081610e8b9190612e87565b5083828281548110610ea057610e9f61303c565b5b90600052602060002090600402016002019081610ebd9190612e87565b505b8080610eca90612ff4565b915050610dd8565b50505050505050565b60606000600160008473ffffffffffffffffffffffffffffffffffffffff1673ffffffffffffffffffffffffffffffffffffffff16815260200190815260200160002090506000818054905067ffffffffffffffff811115610f4057610f3f61213b565b5b604051908082528060200260200182016040528015610f7957816020015b610f66612095565b815260200190600190039081610f5e5790505b50905060005b82805490508110156112dc5760006007848381548110610fa257610fa161303c565b5b90600052602060002001604051610fb991906130ee565b908152602001604051809103902090506040518060400160405280858481548110610fe757610fe661303c565b5b906000526020600020018054610ffc90612caa565b80601f016020809104026020016040519081016040528092919081815260200182805461102890612caa565b80156110755780601f1061104a57610100808354040283529160200191611075565b820191906000526020600020905b81548152906001019060200180831161105857829003601f168201915b5050505050815260200182805480602002602001604051908101604052809291908181526020016000905b828210156112a357838290600052602060002090600402016040518060800160405290816000820180546110d390612caa565b80601f01602080910402602001604051908101604052809291908181526020018280546110ff90612caa565b801561114c5780601f106111215761010080835404028352916020019161114c565b820191906000526020600020905b81548152906001019060200180831161112f57829003601f168201915b5050505050815260200160018201805461116590612caa565b80601f016020809104026020016040519081016040528092919081815260200182805461119190612caa565b80156111de5780601f106111b3576101008083540402835291602001916111de565b820191906000526020600020905b8154815290600101906020018083116111c157829003601f168201915b505050505081526020016002820180546111f790612caa565b80601f016020809104026020016040519081016040528092919081815260200182805461122390612caa565b80156112705780601f1061124557610100808354040283529160200191611270565b820191906000526020600020905b81548152906001019060200180831161125357829003601f168201915b505050505081526020016003820160009054906101000a900460ff161515151581525050815260200190600101906110a0565b505050508152508383815181106112bd576112bc61303c565b5b60200260200101819052505080806112d490612ff4565b915050610f7f565b508092505050919050565b600033826040516020016112fc929190612bd0565b6040516020818303038152906040529050600015156002826040516113219190612bf8565b908152602001604051809103902060009054906101000a900460ff1615150361137f576040517f08c379a000000000000000000000000000000000000000000000000000000000815260040161137690612fa5565b60405180910390fd5b60006007836040516113919190612bf8565b9081526020016040518091039020905060005b818054905081101561147757846040516020016113c19190612bf8565b604051602081830303815290604052805190602001208282815481106113ea576113e961303c565b5b906000526020600020906004020160000160405160200161140b91906130ee565b604051602081830303815290604052805190602001200361146457600182828154811061143b5761143a61303c565b5b906000526020600020906004020160030160006101000a81548160ff0219169083151502179055505b808061146f90612ff4565b9150506113a4565b5050505050565b600360003373ffffffffffffffffffffffffffffffffffffffff1673ffffffffffffffffffffffffffffffffffffffff16815260200190815260200160002060009054906101000a900460ff1661150a576040517f08c379a000000000000000000000000000000000000000000000000000000000815260040161150190613151565b60405180910390fd5b6000600160003373ffffffffffffffffffffffffffffffffffffffff1673ffffffffffffffffffffffffffffffffffffffff168152602001908152602001600020905060005b8180549050811015611955578260405160200161156d9190612bf8565b604051602081830303815290604052805190602001208282815481106115965761159561303c565b5b906000526020600020016040516020016115b091906130ee565b60405160208183030381529060405280519060200120036119425781600183805490506115dd9190613171565b815481106115ee576115ed61303c565b5b9060005260206000200182828154811061160b5761160a61303c565b5b90600052602060002001908161162191906131d0565b5060006007846040516116349190612bf8565b908152602001604051809103902090505b6000818054905011156116c55780805480611663576116626132b8565b5b60019003818190600052602060002090600402016000808201600061168891906120af565b60018201600061169891906120af565b6002820160006116a891906120af565b6003820160006101000a81549060ff021916905550509055611645565b828054806116d6576116d56132b8565b5b6001900381819060005260206000200160006116f291906120af565b905560008380549050036118e2576000600360003373ffffffffffffffffffffffffffffffffffffffff1673ffffffffffffffffffffffffffffffffffffffff16815260200190815260200160002060006101000a81548160ff02191690831515021790555060005b6006805490508110156118e0573373ffffffffffffffffffffffffffffffffffffffff16600682815481106117935761179261303c565b5b9060005260206000200160009054906101000a900473ffffffffffffffffffffffffffffffffffffffff1673ffffffffffffffffffffffffffffffffffffffff16036118cd57600660016006805490506117ed9190613171565b815481106117fe576117fd61303c565b5b9060005260206000200160009054906101000a900473ffffffffffffffffffffffffffffffffffffffff166006828154811061183d5761183c61303c565b5b9060005260206000200160006101000a81548173ffffffffffffffffffffffffffffffffffffffff021916908373ffffffffffffffffffffffffffffffffffffffff1602179055506006805480611897576118966132b8565b5b6001900381819060005260206000200160006101000a81549073ffffffffffffffffffffffffffffffffffffffff021916905590555b80806118d890612ff4565b91505061175b565b505b600033856040516020016118f7929190612bd0565b6040516020818303038152906040529050600060028260405161191a9190612bf8565b908152602001604051809103902060006101000a81548160ff02191690831515021790555050505b808061194d90612ff4565b915050611550565b505050565b6060600160003373ffffffffffffffffffffffffffffffffffffffff1673ffffffffffffffffffffffffffffffffffffffff168152602001908152602001600020805480602002602001604051908101604052809291908181526020016000905b82821015611a675783829060005260206000200180546119da90612caa565b80601f0160208091040260200160405190810160405280929190818152602001828054611a0690612caa565b8015611a535780601f10611a2857610100808354040283529160200191611a53565b820191906000526020600020905b815481529060010190602001808311611a3657829003601f168201915b5050505050815260200190600101906119bb565b50505050905090565b60003382604051602001611a85929190612bd0565b604051602081830303815290604052905060001515600282604051611aaa9190612bf8565b908152602001604051809103902060009054906101000a900460ff16151503611b08576040517f08c379a0000000000000000000000000000000000000000000000000000000008152600401611aff90612fa5565b60405180910390fd5b6000600783604051611b1a9190612bf8565b908152602001604051809103902090506000818054905003611b71576040517f08c379a0000000000000000000000000000000000000000000000000000000008152600401611b6890613333565b60405180910390fd5b60005b8180549050811015611d395784604051602001611b919190612bf8565b60405160208183030381529060405280519060200120828281548110611bba57611bb961303c565b5b9060005260206000209060040201600001604051602001611bdb91906130ee565b6040516020818303038152906040528051906020012003611d26578160018380549050611c089190613171565b81548110611c1957611c1861303c565b5b9060005260206000209060040201828281548110611c3a57611c3961303c565b5b906000526020600020906004020160008201816000019081611c5c9190613369565b5060018201816001019081611c719190613369565b5060028201816002019081611c869190613369565b506003820160009054906101000a900460ff168160030160006101000a81548160ff02191690831515021790555090505081805480611cc857611cc76132b8565b5b600190038181906000526020600020906004020160008082016000611ced91906120af565b600182016000611cfd91906120af565b600282016000611d0d91906120af565b6003820160006101000a81549060ff0219169055505090555b8080611d3190612ff4565b915050611b74565b5050505050565b611d48611f4b565b600073ffffffffffffffffffffffffffffffffffffffff168173ffffffffffffffffffffffffffffffffffffffff1603611db7576040517f08c379a0000000000000000000000000000000000000000000000000000000008152600401611dae906134c3565b60405180910390fd5b611dc081611fc9565b50565b606060008203611e0a576040518060400160405280600181526020017f30000000000000000000000000000000000000000000000000000000000000008152509050611f46565b600082905060005b60008214611e3c578080611e2590612ff4565b915050600a82611e359190613512565b9150611e12565b60008167ffffffffffffffff811115611e5857611e5761213b565b5b6040519080825280601f01601f191660200182016040528015611e8a5781602001600182028036833780820191505090505b50905060008290505b60008614611f3e57600181611ea89190613171565b90506000600a8088611eba9190613512565b611ec49190613543565b87611ecf9190613171565b6030611edb9190613592565b905060008160f81b905080848481518110611ef957611ef861303c565b5b60200101907effffffffffffffffffffffffffffffffffffffffffffffffffffffffffffff1916908160001a905350600a88611f359190613512565b97505050611e93565b819450505050505b919050565b611f5361208d565b73ffffffffffffffffffffffffffffffffffffffff16611f71610cf2565b73ffffffffffffffffffffffffffffffffffffffff1614611fc7576040517f08c379a0000000000000000000000000000000000000000000000000000000008152600401611fbe90613613565b60405180910390fd5b565b60008060009054906101000a900473ffffffffffffffffffffffffffffffffffffffff169050816000806101000a81548173ffffffffffffffffffffffffffffffffffffffff021916908373ffffffffffffffffffffffffffffffffffffffff1602179055508173ffffffffffffffffffffffffffffffffffffffff168173ffffffffffffffffffffffffffffffffffffffff167f8be0079c531659141344cd1fd0a4f28419497f9722a3daafe3b4186f6b6457e060405160405180910390a35050565b600033905090565b604051806040016040528060608152602001606081525090565b5080546120bb90612caa565b6000825580601f106120cd57506120ec565b601f0160209004906000526020600020908101906120eb91906120ef565b5b50565b5b808211156121085760008160009055506001016120f0565b5090565b6000604051905090565b600080fd5b600080fd5b600080fd5b600080fd5b6000601f19601f8301169050919050565b7f4e487b7100000000000000000000000000000000000000000000000000000000600052604160045260246000fd5b6121738261212a565b810181811067ffffffffffffffff821117156121925761219161213b565b5b80604052505050565b60006121a561210c565b90506121b1828261216a565b919050565b600067ffffffffffffffff8211156121d1576121d061213b565b5b6121da8261212a565b9050602081019050919050565b82818337600083830152505050565b6000612209612204846121b6565b61219b565b90508281526020810184848401111561222557612224612125565b5b6122308482856121e7565b509392505050565b600082601f83011261224d5761224c612120565b5b813561225d8482602086016121f6565b91505092915050565b60006020828403121561227c5761227b612116565b5b600082013567ffffffffffffffff81111561229a5761229961211b565b5b6122a684828501612238565b91505092915050565b6000819050919050565b6122c2816122af565b82525050565b60006020820190506122dd60008301846122b9565b92915050565b6122ec816122af565b81146122f757600080fd5b50565b600081359050612309816122e3565b92915050565b60006020828403121561232557612324612116565b5b6000612333848285016122fa565b91505092915050565b600081519050919050565b600082825260208201905092915050565b60005b8381101561237657808201518184015260208101905061235b565b60008484015250505050565b600061238d8261233c565b6123978185612347565b93506123a7818560208601612358565b6123b08161212a565b840191505092915050565b600060208201905081810360008301526123d58184612382565b905092915050565b600073ffffffffffffffffffffffffffffffffffffffff82169050919050565b6000612408826123dd565b9050919050565b612418816123fd565b82525050565b6000602082019050612433600083018461240f565b92915050565b612442816123fd565b811461244d57600080fd5b50565b60008135905061245f81612439565b92915050565b60006020828403121561247b5761247a612116565b5b600061248984828501612450565b91505092915050565b60008115159050919050565b6124a781612492565b82525050565b60006020820190506124c2600083018461249e565b92915050565b6000806000606084860312156124e1576124e0612116565b5b600084013567ffffffffffffffff8111156124ff576124fe61211b565b5b61250b86828701612238565b935050602084013567ffffffffffffffff81111561252c5761252b61211b565b5b61253886828701612238565b925050604084013567ffffffffffffffff8111156125595761255861211b565b5b61256586828701612238565b9150509250925092565b6000806040838503121561258657612585612116565b5b600061259485828601612450565b92505060206125a5858286016122fa565b9150509250929050565b600080604083850312156125c6576125c5612116565b5b600083013567ffffffffffffffff8111156125e4576125e361211b565b5b6125f085828601612238565b9250506020612601858286016122fa565b9150509250929050565b600060808201905081810360008301526126258187612382565b905081810360208301526126398186612382565b9050818103604083015261264d8185612382565b905061265c606083018461249e565b95945050505050565b6000806000806080858703121561267f5761267e612116565b5b600085013567ffffffffffffffff81111561269d5761269c61211b565b5b6126a987828801612238565b945050602085013567ffffffffffffffff8111156126ca576126c961211b565b5b6126d687828801612238565b935050604085013567ffffffffffffffff8111156126f7576126f661211b565b5b61270387828801612238565b925050606085013567ffffffffffffffff8111156127245761272361211b565b5b61273087828801612238565b91505092959194509250565b600081519050919050565b600082825260208201905092915050565b6000819050602082019050919050565b600082825260208201905092915050565b60006127848261233c565b61278e8185612768565b935061279e818560208601612358565b6127a78161212a565b840191505092915050565b600081519050919050565b600082825260208201905092915050565b6000819050602082019050919050565b6127e781612492565b82525050565b6000608083016000830151848203600086015261280a8282612779565b915050602083015184820360208601526128248282612779565b9150506040830151848203604086015261283e8282612779565b915050606083015161285360608601826127de565b508091505092915050565b600061286a83836127ed565b905092915050565b6000602082019050919050565b600061288a826127b2565b61289481856127bd565b9350836020820285016128a6856127ce565b8060005b858110156128e257848403895281516128c3858261285e565b94506128ce83612872565b925060208a019950506001810190506128aa565b50829750879550505050505092915050565b600060408301600083015184820360008601526129118282612779565b9150506020830151848203602086015261292b828261287f565b9150508091505092915050565b600061294483836128f4565b905092915050565b6000602082019050919050565b60006129648261273c565b61296e8185612747565b93508360208202850161298085612758565b8060005b858110156129bc578484038952815161299d8582612938565b94506129a88361294c565b925060208a01995050600181019050612984565b50829750879550505050505092915050565b600060208201905081810360008301526129e88184612959565b905092915050565b60008060408385031215612a0757612a06612116565b5b600083013567ffffffffffffffff811115612a2557612a2461211b565b5b612a3185828601612238565b925050602083013567ffffffffffffffff811115612a5257612a5161211b565b5b612a5e85828601612238565b9150509250929050565b600081519050919050565b600082825260208201905092915050565b6000819050602082019050919050565b6000612aa08383612779565b905092915050565b6000602082019050919050565b6000612ac082612a68565b612aca8185612a73565b935083602082028501612adc85612a84565b8060005b85811015612b185784840389528151612af98582612a94565b9450612b0483612aa8565b925060208a01995050600181019050612ae0565b50829750879550505050505092915050565b60006020820190508181036000830152612b448184612ab5565b905092915050565b60008160601b9050919050565b6000612b6482612b4c565b9050919050565b6000612b7682612b59565b9050919050565b612b8e612b89826123fd565b612b6b565b82525050565b600081905092915050565b6000612baa8261233c565b612bb48185612b94565b9350612bc4818560208601612358565b80840191505092915050565b6000612bdc8285612b7d565b601482019150612bec8284612b9f565b91508190509392505050565b6000612c048284612b9f565b915081905092915050565b7f6c697374696420616c7265616479206578697374730000000000000000000000600082015250565b6000612c45601583612347565b9150612c5082612c0f565b602082019050919050565b60006020820190508181036000830152612c7481612c38565b9050919050565b7f4e487b7100000000000000000000000000000000000000000000000000000000600052602260045260246000fd5b60006002820490506001821680612cc257607f821691505b602082108103612cd557612cd4612c7b565b5b50919050565b60008190508160005260206000209050919050565b60006020601f8301049050919050565b600082821b905092915050565b600060088302612d3d7fffffffffffffffffffffffffffffffffffffffffffffffffffffffffffffffff82612d00565b612d478683612d00565b95508019841693508086168417925050509392505050565b6000819050919050565b6000612d84612d7f612d7a846122af565b612d5f565b6122af565b9050919050565b6000819050919050565b612d9e83612d69565b612db2612daa82612d8b565b848454612d0d565b825550505050565b600090565b612dc7612dba565b612dd2818484612d95565b505050565b5b81811015612df657612deb600082612dbf565b600181019050612dd8565b5050565b601f821115612e3b57612e0c81612cdb565b612e1584612cf0565b81016020851015612e24578190505b612e38612e3085612cf0565b830182612dd7565b50505b505050565b600082821c905092915050565b6000612e5e60001984600802612e40565b1980831691505092915050565b6000612e778383612e4d565b9150826002028217905092915050565b612e908261233c565b67ffffffffffffffff811115612ea957612ea861213b565b5b612eb38254612caa565b612ebe828285612dfa565b600060209050601f831160018114612ef15760008415612edf578287015190505b612ee98582612e6b565b865550612f51565b601f198416612eff86612cdb565b60005b82811015612f2757848901518255600182019150602085019450602081019050612f02565b86831015612f445784890151612f40601f891682612e4d565b8355505b6001600288020188555050505b505050505050565b7f6c6973746964206e6f7420657869737473000000000000000000000000000000600082015250565b6000612f8f601183612347565b9150612f9a82612f59565b602082019050919050565b60006020820190508181036000830152612fbe81612f82565b9050919050565b7f4e487b7100000000000000000000000000000000000000000000000000000000600052601160045260246000fd5b6000612fff826122af565b91507fffffffffffffffffffffffffffffffffffffffffffffffffffffffffffffffff820361303157613030612fc5565b5b600182019050919050565b7f4e487b7100000000000000000000000000000000000000000000000000000000600052603260045260246000fd5b6000815461307881612caa565b6130828186612b94565b9450600182166000811461309d57600181146130b2576130e5565b60ff19831686528115158202860193506130e5565b6130bb85612cdb565b60005b838110156130dd578154818901526001820191506020810190506130be565b838801955050505b50505092915050565b60006130fa828461306b565b915081905092915050565b7f55736572206e6576657220757365732074686973206170700000000000000000600082015250565b600061313b601883612347565b915061314682613105565b602082019050919050565b6000602082019050818103600083015261316a8161312e565b9050919050565b600061317c826122af565b9150613187836122af565b925082820390508181111561319f5761319e612fc5565b5b92915050565b6000815490506131b481612caa565b9050919050565b60008190508160005260206000209050919050565b8181036131de5750506132b6565b6131e7826131a5565b67ffffffffffffffff811115613200576131ff61213b565b5b61320a8254612caa565b613215828285612dfa565b6000601f8311600181146132445760008415613232578287015490505b61323c8582612e6b565b8655506132af565b601f198416613252876131bb565b965061325d86612cdb565b60005b8281101561328557848901548255600182019150600185019450602081019050613260565b868310156132a2578489015461329e601f891682612e4d565b8355505b6001600288020188555050505b5050505050505b565b7f4e487b7100000000000000000000000000000000000000000000000000000000600052603160045260246000fd5b7f746f646f7320697320656d707479000000000000000000000000000000000000600082015250565b600061331d600e83612347565b9150613328826132e7565b602082019050919050565b6000602082019050818103600083015261334c81613310565b9050919050565b60008154905061336281612caa565b9050919050565b81810361337757505061344f565b61338082613353565b67ffffffffffffffff8111156133995761339861213b565b5b6133a38254612caa565b6133ae828285612dfa565b6000601f8311600181146133dd57600084156133cb578287015490505b6133d58582612e6b565b865550613448565b601f1984166133eb87612cdb565b96506133f686612cdb565b60005b8281101561341e578489015482556001820191506001850194506020810190506133f9565b8683101561343b5784890154613437601f891682612e4d565b8355505b6001600288020188555050505b5050505050505b565b7f4f776e61626c653a206e6577206f776e657220697320746865207a65726f206160008201527f6464726573730000000000000000000000000000000000000000000000000000602082015250565b60006134ad602683612347565b91506134b882613451565b604082019050919050565b600060208201905081810360008301526134dc816134a0565b9050919050565b7f4e487b7100000000000000000000000000000000000000000000000000000000600052601260045260246000fd5b600061351d826122af565b9150613528836122af565b925082613538576135376134e3565b5b828204905092915050565b600061354e826122af565b9150613559836122af565b9250828202613567816122af565b9150828204841483151761357e5761357d612fc5565b5b5092915050565b600060ff82169050919050565b600061359d82613585565b91506135a883613585565b9250828201905060ff8111156135c1576135c0612fc5565b5b92915050565b7f4f776e61626c653a2063616c6c6572206973206e6f7420746865206f776e6572600082015250565b60006135fd602083612347565b9150613608826135c7565b602082019050919050565b6000602082019050818103600083015261362c816135f0565b905091905056fea2646970667358221220eaddcd0b45c656da30d07c87926b49761532772b1f37ec67ada529dc1169ab7d64736f6c63430008120033",
  "linkReferences": {},
  "deployedLinkReferences": {}
}